{
  "contractName": "FarmerPortalBase",
  "abi": [
    {
      "anonymous": false,
      "inputs": [
        {
          "indexed": true,
          "internalType": "uint256",
          "name": "cropID",
          "type": "uint256"
        },
        {
          "indexed": true,
          "internalType": "address",
          "name": "bidder",
          "type": "address"
        },
        {
          "indexed": false,
          "internalType": "uint256",
          "name": "amount",
          "type": "uint256"
        },
        {
          "indexed": false,
          "internalType": "uint256",
          "name": "timestamp",
          "type": "uint256"
        }
      ],
      "name": "BidPlaced",
      "type": "event"
    },
    {
      "anonymous": false,
      "inputs": [
        {
          "indexed": true,
          "internalType": "address",
          "name": "buyer",
          "type": "address"
        },
        {
          "indexed": true,
          "internalType": "address",
          "name": "farmer",
          "type": "address"
        },
        {
          "indexed": false,
          "internalType": "uint256",
          "name": "cropID",
          "type": "uint256"
        },
        {
          "indexed": false,
          "internalType": "uint256",
          "name": "quantity",
          "type": "uint256"
        },
        {
          "indexed": false,
          "internalType": "uint256",
          "name": "amountHeld",
          "type": "uint256"
        }
      ],
      "name": "CropBought",
      "type": "event"
    },
    {
      "anonymous": false,
      "inputs": [
        {
          "indexed": true,
          "internalType": "address",
          "name": "farmer",
          "type": "address"
        },
        {
          "indexed": false,
          "internalType": "string",
          "name": "cropName",
          "type": "string"
        },
        {
          "indexed": false,
          "internalType": "uint256",
          "name": "price",
          "type": "uint256"
        },
        {
          "indexed": false,
          "internalType": "uint256",
          "name": "cropID",
          "type": "uint256"
        },
        {
          "indexed": false,
          "internalType": "uint256",
          "name": "quantity",
          "type": "uint256"
        },
        {
          "indexed": false,
          "internalType": "string",
          "name": "deliveryDate",
          "type": "string"
        },
        {
          "indexed": false,
          "internalType": "string",
          "name": "imageCID",
          "type": "string"
        },
        {
          "indexed": false,
          "internalType": "string",
          "name": "cultivationDate",
          "type": "string"
        }
      ],
      "name": "CropListed",
      "type": "event"
    },
    {
      "anonymous": false,
      "inputs": [
        {
          "indexed": true,
          "internalType": "address",
          "name": "buyer",
          "type": "address"
        },
        {
          "indexed": true,
          "internalType": "address",
          "name": "farmer",
          "type": "address"
        },
        {
          "indexed": false,
          "internalType": "uint256",
          "name": "cropID",
          "type": "uint256"
        },
        {
          "indexed": false,
          "internalType": "uint256",
          "name": "amountReleased",
          "type": "uint256"
        }
      ],
      "name": "DeliveryConfirmed",
      "type": "event"
    },
    {
      "anonymous": false,
      "inputs": [
        {
          "indexed": true,
          "internalType": "uint256",
          "name": "requestId",
          "type": "uint256"
        },
        {
          "indexed": true,
          "internalType": "address",
          "name": "buyer",
          "type": "address"
        },
        {
          "indexed": true,
          "internalType": "address",
          "name": "farmer",
          "type": "address"
        },
        {
          "indexed": false,
          "internalType": "uint256",
          "name": "cropID",
          "type": "uint256"
        },
        {
          "indexed": false,
          "internalType": "uint256",
          "name": "quantity",
          "type": "uint256"
        }
      ],
      "name": "PurchaseRequested",
      "type": "event"
    },
    {
      "anonymous": false,
      "inputs": [
        {
          "indexed": true,
          "internalType": "uint256",
          "name": "requestId",
          "type": "uint256"
        },
        {
          "indexed": false,
          "internalType": "enum FarmerPortalBase.RequestStatus",
          "name": "status",
          "type": "uint8"
        }
      ],
      "name": "RequestStatusChanged",
      "type": "event"
    },
    {
      "anonymous": false,
      "inputs": [
        {
          "indexed": true,
          "internalType": "address",
          "name": "user",
          "type": "address"
        },
        {
          "indexed": false,
          "internalType": "string",
          "name": "name",
          "type": "string"
        },
        {
          "indexed": false,
          "internalType": "string",
          "name": "profileImageCID",
          "type": "string"
        }
      ],
      "name": "UserProfileUpdated",
      "type": "event"
    },
    {
      "anonymous": false,
      "inputs": [
        {
          "indexed": true,
          "internalType": "address",
          "name": "user",
          "type": "address"
        },
        {
          "indexed": false,
          "internalType": "enum FarmerPortalBase.UserRole",
          "name": "role",
          "type": "uint8"
        }
      ],
      "name": "UserRegistered",
      "type": "event"
    },
    {
      "inputs": [
        {
          "internalType": "address",
          "name": "",
          "type": "address"
        }
      ],
      "name": "escrowBalances",
      "outputs": [
        {
          "internalType": "uint256",
          "name": "",
          "type": "uint256"
        }
      ],
      "stateMutability": "view",
      "type": "function"
    },
    {
      "inputs": [
        {
          "internalType": "address",
          "name": "",
          "type": "address"
        }
      ],
      "name": "users",
      "outputs": [
        {
          "internalType": "address",
          "name": "wallet",
          "type": "address"
        },
        {
          "internalType": "enum FarmerPortalBase.UserRole",
          "name": "role",
          "type": "uint8"
        },
        {
          "internalType": "bool",
          "name": "registered",
          "type": "bool"
        },
        {
          "internalType": "string",
          "name": "name",
          "type": "string"
        },
        {
          "internalType": "string",
          "name": "profileImageCID",
          "type": "string"
        },
        {
          "internalType": "string",
          "name": "location",
          "type": "string"
        },
        {
          "internalType": "string",
          "name": "contact",
          "type": "string"
        }
      ],
      "stateMutability": "view",
      "type": "function"
    },
    {
      "inputs": [
        {
          "internalType": "uint8",
          "name": "role",
          "type": "uint8"
        }
      ],
      "name": "registerUser",
      "outputs": [],
      "stateMutability": "nonpayable",
      "type": "function"
    },
    {
      "inputs": [
        {
          "internalType": "string",
          "name": "_name",
          "type": "string"
        },
        {
          "internalType": "string",
          "name": "_profileImageCID",
          "type": "string"
        },
        {
          "internalType": "string",
          "name": "_location",
          "type": "string"
        },
        {
          "internalType": "string",
          "name": "_contact",
          "type": "string"
        }
      ],
      "name": "updateUserProfile",
      "outputs": [],
      "stateMutability": "nonpayable",
      "type": "function"
    },
    {
      "inputs": [
        {
          "internalType": "address",
          "name": "_userAddress",
          "type": "address"
        }
      ],
      "name": "getUserProfile",
      "outputs": [
        {
          "internalType": "string",
          "name": "",
          "type": "string"
        },
        {
          "internalType": "string",
          "name": "",
          "type": "string"
        },
        {
          "internalType": "string",
          "name": "",
          "type": "string"
        },
        {
          "internalType": "string",
          "name": "",
          "type": "string"
        },
        {
          "internalType": "enum FarmerPortalBase.UserRole",
          "name": "",
          "type": "uint8"
        }
      ],
      "stateMutability": "view",
      "type": "function"
    },
    {
      "inputs": [
        {
          "internalType": "address",
          "name": "_user",
          "type": "address"
        }
      ],
      "name": "getUserRole",
      "outputs": [
        {
          "internalType": "enum FarmerPortalBase.UserRole",
          "name": "",
          "type": "uint8"
        }
      ],
      "stateMutability": "view",
      "type": "function"
    },
    {
      "inputs": [],
      "name": "getMyListings",
      "outputs": [
        {
          "components": [
            {
              "internalType": "string",
              "name": "cropName",
              "type": "string"
            },
            {
              "internalType": "uint256",
              "name": "price",
              "type": "uint256"
            },
            {
              "internalType": "uint256",
              "name": "cropID",
              "type": "uint256"
            },
            {
              "internalType": "uint256",
              "name": "quantity",
              "type": "uint256"
            },
            {
              "internalType": "string",
              "name": "deliveryDate",
              "type": "string"
            },
            {
              "internalType": "address",
              "name": "farmer",
              "type": "address"
            },
            {
              "internalType": "string",
              "name": "imageCID",
              "type": "string"
            },
            {
              "internalType": "string",
              "name": "cultivationDate",
              "type": "string"
            }
          ],
          "internalType": "struct FarmerPortalBase.CropListing[]",
          "name": "",
          "type": "tuple[]"
        }
      ],
      "stateMutability": "view",
      "type": "function"
    },
    {
      "inputs": [],
      "name": "getAllListings",
      "outputs": [
        {
          "components": [
            {
              "internalType": "string",
              "name": "cropName",
              "type": "string"
            },
            {
              "internalType": "uint256",
              "name": "price",
              "type": "uint256"
            },
            {
              "internalType": "uint256",
              "name": "cropID",
              "type": "uint256"
            },
            {
              "internalType": "uint256",
              "name": "quantity",
              "type": "uint256"
            },
            {
              "internalType": "string",
              "name": "deliveryDate",
              "type": "string"
            },
            {
              "internalType": "address",
              "name": "farmer",
              "type": "address"
            },
            {
              "internalType": "string",
              "name": "imageCID",
              "type": "string"
            },
            {
              "internalType": "string",
              "name": "cultivationDate",
              "type": "string"
            }
          ],
          "internalType": "struct FarmerPortalBase.CropListing[]",
          "name": "",
          "type": "tuple[]"
        }
      ],
      "stateMutability": "view",
      "type": "function"
    }
  ],
  "bytecode": "0x6080604052600160085534801561001557600080fd5b5061190b806100256000396000f3fe608060405234801561001057600080fd5b50600436106100875760003560e01c80639672ba571161005b5780639672ba5714610112578063987ee15614610140578063a87430ba14610164578063ae73ccec1461018a57600080fd5b8062754eea1461008c57806302b8c8cd146100aa57806327820851146100bf57806379726074146100ff575b600080fd5b610094610192565b6040516100a1919061130a565b60405180910390f35b6100bd6100b8366004611404565b610528565b005b6100f26100cd36600461142e565b6001600160a01b0316600090815260208190526040902054600160a01b900460ff1690565b6040516100a1919061148f565b6100bd61010d366004611546565b6107db565b61013261012036600461142e565b60036020526000908152604090205481565b6040519081526020016100a1565b61015361014e36600461142e565b6108a6565b6040516100a19594939291906115f3565b61017761017236600461142e565b610bdb565b6040516100a1979695949392919061165a565b610094610e49565b33600090815260208190526040902054606090600160a81b900460ff166101d45760405162461bcd60e51b81526004016101cb906116d9565b60405180910390fd5b600133600090815260208190526040902054600160a01b900460ff16600281111561020157610201611457565b146102455760405162461bcd60e51b815260206004820152601460248201527313db9b1e4819985c9b595c9cc8185b1b1bddd95960621b60448201526064016101cb565b33600090815260016020908152604080832080548251818502810185019093528083529193909284015b8282101561051f5783829060005260206000209060080201604051806101000160405290816000820180546102a390611706565b80601f01602080910402602001604051908101604052809291908181526020018280546102cf90611706565b801561031c5780601f106102f15761010080835404028352916020019161031c565b820191906000526020600020905b8154815290600101906020018083116102ff57829003601f168201915b5050505050815260200160018201548152602001600282015481526020016003820154815260200160048201805461035390611706565b80601f016020809104026020016040519081016040528092919081815260200182805461037f90611706565b80156103cc5780601f106103a1576101008083540402835291602001916103cc565b820191906000526020600020905b8154815290600101906020018083116103af57829003601f168201915b505050918352505060058201546001600160a01b031660208201526006820180546040909201916103fc90611706565b80601f016020809104026020016040519081016040528092919081815260200182805461042890611706565b80156104755780601f1061044a57610100808354040283529160200191610475565b820191906000526020600020905b81548152906001019060200180831161045857829003601f168201915b5050505050815260200160078201805461048e90611706565b80601f01602080910402602001604051908101604052809291908181526020018280546104ba90611706565b80156105075780601f106104dc57610100808354040283529160200191610507565b820191906000526020600020905b8154815290600101906020018083116104ea57829003601f168201915b5050505050815250508152602001906001019061026f565b50505050905090565b60ff81166001148061053d575060ff81166002145b6105785760405162461bcd60e51b815260206004820152600c60248201526b496e76616c696420726f6c6560a01b60448201526064016101cb565b33600090815260208190526040902054600160a81b900460ff16156105df5760405162461bcd60e51b815260206004820152601760248201527f5573657220616c7265616479207265676973746572656400000000000000000060448201526064016101cb565b6040518060e00160405280336001600160a01b031681526020018260ff16600281111561060e5761060e611457565b600281111561061f5761061f611457565b815260016020808301919091526040805180830182526000808252828501919091528151808401835281815260608501528151808401835281815260808501528151808401835281815260a090940193909352338352828252909120825181546001600160a01b03919091166001600160a01b031982168117835592840151919283916001600160a81b03191617600160a01b8360028111156106c4576106c4611457565b021790555060408201518154901515600160a81b0260ff60a81b19909116178155606082015160018201906106f9908261178f565b506080820151600282019061070e908261178f565b5060a08201516003820190610723908261178f565b5060c08201516004820190610738908261178f565b503391507f8e18574f8a7333e6a87112742a55853a643e2f0550f4e1a3a2c3f1bb2994441d905060ff8316600281111561077457610774611457565b604051610781919061148f565b60405180910390a260001960ff8216016107d857600480546001810182556000919091527f8a35acfbc15ff81a39ae7d344fd709f28e8600b4aa8c65c6b64bfe7fe36bd19b0180546001600160a01b031916331790555b50565b33600090815260208190526040902054600160a81b900460ff166108115760405162461bcd60e51b81526004016101cb906116d9565b3360009081526020819052604090206001810161082e868261178f565b506002810161083d858261178f565b506003810161084c848261178f565b506004810161085b838261178f565b50336001600160a01b03167fc13dafd9d9a1258e2f2de748cef0b799dbcc614ed620f5b0564ae615a759795c868660405161089792919061184f565b60405180910390a25050505050565b6001600160a01b038116600090815260208190526040812054606091829182918291600160a81b900460ff166108ee5760405162461bcd60e51b81526004016101cb906116d9565b6001600160a01b03868116600090815260208181526040808320815160e08101909252805494851682529293909291830190600160a01b900460ff16600281111561093b5761093b611457565b600281111561094c5761094c611457565b81528154600160a81b900460ff161515602082015260018201805460409092019161097690611706565b80601f01602080910402602001604051908101604052809291908181526020018280546109a290611706565b80156109ef5780601f106109c4576101008083540402835291602001916109ef565b820191906000526020600020905b8154815290600101906020018083116109d257829003601f168201915b50505050508152602001600282018054610a0890611706565b80601f0160208091040260200160405190810160405280929190818152602001828054610a3490611706565b8015610a815780601f10610a5657610100808354040283529160200191610a81565b820191906000526020600020905b815481529060010190602001808311610a6457829003601f168201915b50505050508152602001600382018054610a9a90611706565b80601f0160208091040260200160405190810160405280929190818152602001828054610ac690611706565b8015610b135780601f10610ae857610100808354040283529160200191610b13565b820191906000526020600020905b815481529060010190602001808311610af657829003601f168201915b50505050508152602001600482018054610b2c90611706565b80601f0160208091040260200160405190810160405280929190818152602001828054610b5890611706565b8015610ba55780601f10610b7a57610100808354040283529160200191610ba5565b820191906000526020600020905b815481529060010190602001808311610b8857829003601f168201915b505050919092525050506060810151608082015160a083015160c0840151602090940151929b919a509850919650945092505050565b600060208190529081526040902080546001820180546001600160a01b0383169360ff600160a01b8504811694600160a81b900416929091610c1c90611706565b80601f0160208091040260200160405190810160405280929190818152602001828054610c4890611706565b8015610c955780601f10610c6a57610100808354040283529160200191610c95565b820191906000526020600020905b815481529060010190602001808311610c7857829003601f168201915b505050505090806002018054610caa90611706565b80601f0160208091040260200160405190810160405280929190818152602001828054610cd690611706565b8015610d235780601f10610cf857610100808354040283529160200191610d23565b820191906000526020600020905b815481529060010190602001808311610d0657829003601f168201915b505050505090806003018054610d3890611706565b80601f0160208091040260200160405190810160405280929190818152602001828054610d6490611706565b8015610db15780601f10610d8657610100808354040283529160200191610db1565b820191906000526020600020905b815481529060010190602001808311610d9457829003601f168201915b505050505090806004018054610dc690611706565b80601f0160208091040260200160405190810160405280929190818152602001828054610df290611706565b8015610e3f5780601f10610e1457610100808354040283529160200191610e3f565b820191906000526020600020905b815481529060010190602001808311610e2257829003601f168201915b5050505050905087565b60606000805b600454811015610eb3576001600060048381548110610e7057610e7061187d565b60009182526020808320909101546001600160a01b03168352820192909252604001902054610e9f90836118a9565b915080610eab816118bc565b915050610e4f565b5060008167ffffffffffffffff811115610ecf57610ecf6114a3565b604051908082528060200260200182016040528015610f5157816020015b610f3e604051806101000160405280606081526020016000815260200160008152602001600081526020016060815260200160006001600160a01b0316815260200160608152602001606081525090565b815260200190600190039081610eed5790505b5090506000805b6004548110156112bb57600060048281548110610f7757610f7761187d565b60009182526020808320909101546001600160a01b031680835260019091526040822054909250905b818110156112a5576001600160a01b0383166000908152600160205260409020805482908110610fd257610fd261187d565b906000526020600020906008020160405180610100016040529081600082018054610ffc90611706565b80601f016020809104026020016040519081016040528092919081815260200182805461102890611706565b80156110755780601f1061104a57610100808354040283529160200191611075565b820191906000526020600020905b81548152906001019060200180831161105857829003601f168201915b505050505081526020016001820154815260200160028201548152602001600382015481526020016004820180546110ac90611706565b80601f01602080910402602001604051908101604052809291908181526020018280546110d890611706565b80156111255780601f106110fa57610100808354040283529160200191611125565b820191906000526020600020905b81548152906001019060200180831161110857829003601f168201915b505050918352505060058201546001600160a01b0316602082015260068201805460409092019161115590611706565b80601f016020809104026020016040519081016040528092919081815260200182805461118190611706565b80156111ce5780601f106111a3576101008083540402835291602001916111ce565b820191906000526020600020905b8154815290600101906020018083116111b157829003601f168201915b505050505081526020016007820180546111e790611706565b80601f016020809104026020016040519081016040528092919081815260200182805461121390611706565b80156112605780601f1061123557610100808354040283529160200191611260565b820191906000526020600020905b81548152906001019060200180831161124357829003601f168201915b505050505081525050868680611275906118bc565b9750815181106112875761128761187d565b6020026020010181905250808061129d906118bc565b915050610fa0565b50505080806112b3906118bc565b915050610f58565b50909392505050565b6000815180845260005b818110156112ea576020818501810151868301820152016112ce565b506000602082860101526020601f19601f83011685010191505092915050565b60006020808301818452808551808352604092508286019150828160051b87010184880160005b838110156113f657603f1989840301855281516101008151818652611358828701826112c4565b9150508882015189860152878201518886015260608083015181870152506080808301518683038288015261138d83826112c4565b9250505060a0808301516113ab828801826001600160a01b03169052565b505060c080830151868303828801526113c483826112c4565b9250505060e080830151925085820381870152506113e281836112c4565b968901969450505090860190600101611331565b509098975050505050505050565b60006020828403121561141657600080fd5b813560ff8116811461142757600080fd5b9392505050565b60006020828403121561144057600080fd5b81356001600160a01b038116811461142757600080fd5b634e487b7160e01b600052602160045260246000fd5b6003811061148b57634e487b7160e01b600052602160045260246000fd5b9052565b6020810161149d828461146d565b92915050565b634e487b7160e01b600052604160045260246000fd5b600082601f8301126114ca57600080fd5b813567ffffffffffffffff808211156114e5576114e56114a3565b604051601f8301601f19908116603f0116810190828211818310171561150d5761150d6114a3565b8160405283815286602085880101111561152657600080fd5b836020870160208301376000602085830101528094505050505092915050565b6000806000806080858703121561155c57600080fd5b843567ffffffffffffffff8082111561157457600080fd5b611580888389016114b9565b9550602087013591508082111561159657600080fd5b6115a2888389016114b9565b945060408701359150808211156115b857600080fd5b6115c4888389016114b9565b935060608701359150808211156115da57600080fd5b506115e7878288016114b9565b91505092959194509250565b60a08152600061160660a08301886112c4565b828103602084015261161881886112c4565b9050828103604084015261162c81876112c4565b9050828103606084015261164081866112c4565b915050611650608083018461146d565b9695505050505050565b6001600160a01b0388168152611673602082018861146d565b851515604082015260e06060820152600061169160e08301876112c4565b82810360808401526116a381876112c4565b905082810360a08401526116b781866112c4565b905082810360c08401526116cb81856112c4565b9a9950505050505050505050565b602080825260139082015272155cd95c881b9bdd081c9959da5cdd195c9959606a1b604082015260600190565b600181811c9082168061171a57607f821691505b60208210810361173a57634e487b7160e01b600052602260045260246000fd5b50919050565b601f82111561178a57600081815260208120601f850160051c810160208610156117675750805b601f850160051c820191505b8181101561178657828155600101611773565b5050505b505050565b815167ffffffffffffffff8111156117a9576117a96114a3565b6117bd816117b78454611706565b84611740565b602080601f8311600181146117f257600084156117da5750858301515b600019600386901b1c1916600185901b178555611786565b600085815260208120601f198616915b8281101561182157888601518255948401946001909101908401611802565b508582101561183f5787850151600019600388901b60f8161c191681555b5050505050600190811b01905550565b60408152600061186260408301856112c4565b828103602084015261187481856112c4565b95945050505050565b634e487b7160e01b600052603260045260246000fd5b634e487b7160e01b600052601160045260246000fd5b8082018082111561149d5761149d611893565b6000600182016118ce576118ce611893565b506001019056fea264697066735822122092671bb1bf29fc054395f42cfe161c0ef6367a78b18351a281508f19071b151964736f6c63430008130033",
  "immutableReferences": {},
  "source": "// SPDX-License-Identifier: MIT\npragma solidity ^0.8.19;\n\ncontract FarmerPortalBase {\n    enum UserRole { Unregistered, Farmer, Buyer }\n    enum RequestStatus { Pending, Accepted, Rejected, Completed }\n\n    struct User {\n        address wallet;\n        UserRole role;\n        bool registered;\n        string name;\n        string profileImageCID;\n        string location;\n        string contact;\n    }\n\n    struct CropListing {\n        string cropName;\n        uint256 price;\n        uint256 cropID;\n        uint256 quantity;\n        string deliveryDate;\n        address farmer;\n        string imageCID;\n        string cultivationDate;\n    }\n\n    struct Purchase {\n        uint256 cropID;\n        uint256 quantity;\n        address buyer;\n        address farmer;\n        uint256 amountHeld;\n        bool delivered;\n    }\n\n    struct PurchaseRequest {\n        uint256 requestId;\n        uint256 cropID;\n        uint256 quantity;\n        address buyer;\n        address farmer;\n        uint256 price;\n        RequestStatus status;\n        string message;\n        uint256 timestamp;\n    }\n\n    struct Bid {\n        address bidder;\n        uint256 amount;\n        uint256 timestamp;\n    }\n\n    mapping(address => User) public users;\n    mapping(address => CropListing[]) internal farmerListings;\n    mapping(address => Purchase[]) internal deliveries;\n    mapping(address => uint256) public escrowBalances;\n    address[] internal farmers;\n    \n    PurchaseRequest[] internal purchaseRequests;\n    mapping(address => uint[]) internal farmerRequests;\n    mapping(address => uint[]) internal buyerRequests;\n    uint256 internal nextRequestId = 1;\n\n    mapping(uint256 => Bid[]) internal cropBids;\n\n    event UserRegistered(address indexed user, UserRole role);\n    event UserProfileUpdated(address indexed user, string name, string profileImageCID);\n    event CropListed(address indexed farmer, string cropName, uint256 price, uint256 cropID, uint256 quantity, string deliveryDate, string imageCID, string cultivationDate);\n    event CropBought(address indexed buyer, address indexed farmer, uint256 cropID, uint256 quantity, uint256 amountHeld);\n    event DeliveryConfirmed(address indexed buyer, address indexed farmer, uint256 cropID, uint256 amountReleased);\n    event PurchaseRequested(uint256 indexed requestId, address indexed buyer, address indexed farmer, uint256 cropID, uint256 quantity);\n    event RequestStatusChanged(uint256 indexed requestId, RequestStatus status);\n    event BidPlaced(uint256 indexed cropID, address indexed bidder, uint256 amount, uint256 timestamp);\n\n    modifier onlyFarmer() {\n        require(users[msg.sender].registered, \"User not registered\");\n        require(users[msg.sender].role == UserRole.Farmer, \"Only farmers allowed\");\n        _;\n    }\n\n    modifier onlyBuyer() {\n        require(users[msg.sender].registered, \"User not registered\");\n        require(users[msg.sender].role == UserRole.Buyer, \"Only buyers allowed\");\n        _;\n    }\n\n    function registerUser(uint8 role) external {\n        require(role == uint8(UserRole.Farmer) || role == uint8(UserRole.Buyer), \"Invalid role\");\n        require(!users[msg.sender].registered, \"User already registered\");\n\n        users[msg.sender] = User(msg.sender, UserRole(role), true, \"\", \"\", \"\", \"\");\n        emit UserRegistered(msg.sender, UserRole(role));\n\n        if (role == uint8(UserRole.Farmer)) {\n            farmers.push(msg.sender);\n        }\n    }\n\n    function updateUserProfile(string memory _name, string memory _profileImageCID, string memory _location, string memory _contact) external {\n        require(users[msg.sender].registered, \"User not registered\");\n        \n        User storage user = users[msg.sender];\n        user.name = _name;\n        user.profileImageCID = _profileImageCID;\n        user.location = _location;\n        user.contact = _contact;\n        \n        emit UserProfileUpdated(msg.sender, _name, _profileImageCID);\n    }\n\n    function getUserProfile(address _userAddress) external view returns (string memory, string memory, string memory, string memory, UserRole) {\n        require(users[_userAddress].registered, \"User not registered\");\n        User memory user = users[_userAddress];\n        return (user.name, user.profileImageCID, user.location, user.contact, user.role);\n    }\n\n    function getUserRole(address _user) external view returns (UserRole) {\n        return users[_user].role;\n    }\n\n    function getMyListings() external view onlyFarmer returns (CropListing[] memory) {\n        return farmerListings[msg.sender];\n    }\n\n    function getAllListings() external view returns (CropListing[] memory) {\n        uint256 totalCrops = 0;\n        for (uint256 i = 0; i < farmers.length; i++) {\n            totalCrops += farmerListings[farmers[i]].length;\n        }\n\n        CropListing[] memory allListings = new CropListing[](totalCrops);\n        uint256 index = 0;\n\n        for (uint256 i = 0; i < farmers.length; i++) {\n            address farmer = farmers[i]; \n            uint256 len = farmerListings[farmer].length;\n            for (uint256 j = 0; j < len; j++) {\n                allListings[index++] = farmerListings[farmer][j];\n            }\n        }\n\n        return allListings;\n    }\n} ",
  "sourcePath": "E:\\FarmAssure\\FarmAssure\\FarmAssure\\contract\\contracts\\FarmerPortalBase.sol",
  "compiler": {
    "name": "solc",
    "version": "0.8.19+commit.7dd6d404.Emscripten.clang"
  },
  "schemaVersion": "3.4.16",
  "updatedAt": "2025-08-16T20:59:06.763Z",
  "devdoc": {
    "kind": "dev",
    "methods": {},
    "version": 1
  },
  "userdoc": {
    "kind": "user",
    "methods": {},
    "version": 1
  }
}