{
  "contractName": "FarmerPortal",
  "abi": [
    {
      "anonymous": false,
      "inputs": [
        {
          "indexed": true,
          "internalType": "address",
          "name": "buyer",
          "type": "address"
        },
        {
          "indexed": true,
          "internalType": "address",
          "name": "farmer",
          "type": "address"
        },
        {
          "indexed": false,
          "internalType": "uint256",
          "name": "cropID",
          "type": "uint256"
        },
        {
          "indexed": false,
          "internalType": "uint256",
          "name": "quantity",
          "type": "uint256"
        },
        {
          "indexed": false,
          "internalType": "uint256",
          "name": "amountHeld",
          "type": "uint256"
        }
      ],
      "name": "CropBought",
      "type": "event"
    },
    {
      "anonymous": false,
      "inputs": [
        {
          "indexed": true,
          "internalType": "address",
          "name": "farmer",
          "type": "address"
        },
        {
          "indexed": false,
          "internalType": "string",
          "name": "cropName",
          "type": "string"
        },
        {
          "indexed": false,
          "internalType": "uint256",
          "name": "price",
          "type": "uint256"
        },
        {
          "indexed": false,
          "internalType": "uint256",
          "name": "cropID",
          "type": "uint256"
        },
        {
          "indexed": false,
          "internalType": "uint256",
          "name": "quantity",
          "type": "uint256"
        },
        {
          "indexed": false,
          "internalType": "string",
          "name": "deliveryDate",
          "type": "string"
        },
        {
          "indexed": false,
          "internalType": "string",
          "name": "imageCID",
          "type": "string"
        }
      ],
      "name": "CropListed",
      "type": "event"
    },
    {
      "anonymous": false,
      "inputs": [
        {
          "indexed": true,
          "internalType": "address",
          "name": "buyer",
          "type": "address"
        },
        {
          "indexed": true,
          "internalType": "address",
          "name": "farmer",
          "type": "address"
        },
        {
          "indexed": false,
          "internalType": "uint256",
          "name": "cropID",
          "type": "uint256"
        },
        {
          "indexed": false,
          "internalType": "uint256",
          "name": "amountReleased",
          "type": "uint256"
        }
      ],
      "name": "DeliveryConfirmed",
      "type": "event"
    },
    {
      "anonymous": false,
      "inputs": [
        {
          "indexed": true,
          "internalType": "uint256",
          "name": "requestId",
          "type": "uint256"
        },
        {
          "indexed": true,
          "internalType": "address",
          "name": "buyer",
          "type": "address"
        },
        {
          "indexed": true,
          "internalType": "address",
          "name": "farmer",
          "type": "address"
        },
        {
          "indexed": false,
          "internalType": "uint256",
          "name": "cropID",
          "type": "uint256"
        },
        {
          "indexed": false,
          "internalType": "uint256",
          "name": "quantity",
          "type": "uint256"
        }
      ],
      "name": "PurchaseRequested",
      "type": "event"
    },
    {
      "anonymous": false,
      "inputs": [
        {
          "indexed": true,
          "internalType": "uint256",
          "name": "requestId",
          "type": "uint256"
        },
        {
          "indexed": false,
          "internalType": "enum FarmerPortal.RequestStatus",
          "name": "status",
          "type": "uint8"
        }
      ],
      "name": "RequestStatusChanged",
      "type": "event"
    },
    {
      "anonymous": false,
      "inputs": [
        {
          "indexed": true,
          "internalType": "address",
          "name": "user",
          "type": "address"
        },
        {
          "indexed": false,
          "internalType": "string",
          "name": "name",
          "type": "string"
        },
        {
          "indexed": false,
          "internalType": "string",
          "name": "profileImageCID",
          "type": "string"
        }
      ],
      "name": "UserProfileUpdated",
      "type": "event"
    },
    {
      "anonymous": false,
      "inputs": [
        {
          "indexed": true,
          "internalType": "address",
          "name": "user",
          "type": "address"
        },
        {
          "indexed": false,
          "internalType": "enum FarmerPortal.UserRole",
          "name": "role",
          "type": "uint8"
        }
      ],
      "name": "UserRegistered",
      "type": "event"
    },
    {
      "inputs": [
        {
          "internalType": "address",
          "name": "",
          "type": "address"
        }
      ],
      "name": "escrowBalances",
      "outputs": [
        {
          "internalType": "uint256",
          "name": "",
          "type": "uint256"
        }
      ],
      "stateMutability": "view",
      "type": "function",
      "constant": true
    },
    {
      "inputs": [
        {
          "internalType": "address",
          "name": "",
          "type": "address"
        }
      ],
      "name": "users",
      "outputs": [
        {
          "internalType": "address",
          "name": "wallet",
          "type": "address"
        },
        {
          "internalType": "enum FarmerPortal.UserRole",
          "name": "role",
          "type": "uint8"
        },
        {
          "internalType": "bool",
          "name": "registered",
          "type": "bool"
        },
        {
          "internalType": "string",
          "name": "name",
          "type": "string"
        },
        {
          "internalType": "string",
          "name": "profileImageCID",
          "type": "string"
        },
        {
          "internalType": "string",
          "name": "location",
          "type": "string"
        },
        {
          "internalType": "string",
          "name": "contact",
          "type": "string"
        }
      ],
      "stateMutability": "view",
      "type": "function",
      "constant": true
    },
    {
      "inputs": [
        {
          "internalType": "uint8",
          "name": "role",
          "type": "uint8"
        }
      ],
      "name": "registerUser",
      "outputs": [],
      "stateMutability": "nonpayable",
      "type": "function"
    },
    {
      "inputs": [
        {
          "internalType": "string",
          "name": "_name",
          "type": "string"
        },
        {
          "internalType": "string",
          "name": "_profileImageCID",
          "type": "string"
        },
        {
          "internalType": "string",
          "name": "_location",
          "type": "string"
        },
        {
          "internalType": "string",
          "name": "_contact",
          "type": "string"
        }
      ],
      "name": "updateUserProfile",
      "outputs": [],
      "stateMutability": "nonpayable",
      "type": "function"
    },
    {
      "inputs": [
        {
          "internalType": "address",
          "name": "_userAddress",
          "type": "address"
        }
      ],
      "name": "getUserProfile",
      "outputs": [
        {
          "internalType": "string",
          "name": "",
          "type": "string"
        },
        {
          "internalType": "string",
          "name": "",
          "type": "string"
        },
        {
          "internalType": "string",
          "name": "",
          "type": "string"
        },
        {
          "internalType": "string",
          "name": "",
          "type": "string"
        },
        {
          "internalType": "enum FarmerPortal.UserRole",
          "name": "",
          "type": "uint8"
        }
      ],
      "stateMutability": "view",
      "type": "function",
      "constant": true
    },
    {
      "inputs": [
        {
          "internalType": "string",
          "name": "_cropName",
          "type": "string"
        },
        {
          "internalType": "uint256",
          "name": "_price",
          "type": "uint256"
        },
        {
          "internalType": "uint256",
          "name": "_cropID",
          "type": "uint256"
        },
        {
          "internalType": "uint256",
          "name": "_quantity",
          "type": "uint256"
        },
        {
          "internalType": "string",
          "name": "_deliveryDate",
          "type": "string"
        },
        {
          "internalType": "string",
          "name": "_imageCID",
          "type": "string"
        }
      ],
      "name": "addListing",
      "outputs": [],
      "stateMutability": "nonpayable",
      "type": "function"
    },
    {
      "inputs": [],
      "name": "getMyListings",
      "outputs": [
        {
          "components": [
            {
              "internalType": "string",
              "name": "cropName",
              "type": "string"
            },
            {
              "internalType": "uint256",
              "name": "price",
              "type": "uint256"
            },
            {
              "internalType": "uint256",
              "name": "cropID",
              "type": "uint256"
            },
            {
              "internalType": "uint256",
              "name": "quantity",
              "type": "uint256"
            },
            {
              "internalType": "string",
              "name": "deliveryDate",
              "type": "string"
            },
            {
              "internalType": "address",
              "name": "farmer",
              "type": "address"
            },
            {
              "internalType": "string",
              "name": "imageCID",
              "type": "string"
            }
          ],
          "internalType": "struct FarmerPortal.CropListing[]",
          "name": "",
          "type": "tuple[]"
        }
      ],
      "stateMutability": "view",
      "type": "function",
      "constant": true
    },
    {
      "inputs": [
        {
          "internalType": "address",
          "name": "_user",
          "type": "address"
        }
      ],
      "name": "getUserRole",
      "outputs": [
        {
          "internalType": "enum FarmerPortal.UserRole",
          "name": "",
          "type": "uint8"
        }
      ],
      "stateMutability": "view",
      "type": "function",
      "constant": true
    },
    {
      "inputs": [],
      "name": "getAllListings",
      "outputs": [
        {
          "components": [
            {
              "internalType": "string",
              "name": "cropName",
              "type": "string"
            },
            {
              "internalType": "uint256",
              "name": "price",
              "type": "uint256"
            },
            {
              "internalType": "uint256",
              "name": "cropID",
              "type": "uint256"
            },
            {
              "internalType": "uint256",
              "name": "quantity",
              "type": "uint256"
            },
            {
              "internalType": "string",
              "name": "deliveryDate",
              "type": "string"
            },
            {
              "internalType": "address",
              "name": "farmer",
              "type": "address"
            },
            {
              "internalType": "string",
              "name": "imageCID",
              "type": "string"
            }
          ],
          "internalType": "struct FarmerPortal.CropListing[]",
          "name": "",
          "type": "tuple[]"
        }
      ],
      "stateMutability": "view",
      "type": "function",
      "constant": true
    },
    {
      "inputs": [
        {
          "internalType": "uint256",
          "name": "cropID",
          "type": "uint256"
        },
        {
          "internalType": "uint256",
          "name": "quantity",
          "type": "uint256"
        },
        {
          "internalType": "string",
          "name": "message",
          "type": "string"
        }
      ],
      "name": "requestPurchase",
      "outputs": [],
      "stateMutability": "nonpayable",
      "type": "function"
    },
    {
      "inputs": [
        {
          "internalType": "uint256",
          "name": "requestId",
          "type": "uint256"
        },
        {
          "internalType": "bool",
          "name": "accept",
          "type": "bool"
        }
      ],
      "name": "respondToPurchaseRequest",
      "outputs": [],
      "stateMutability": "nonpayable",
      "type": "function"
    },
    {
      "inputs": [
        {
          "internalType": "uint256",
          "name": "requestId",
          "type": "uint256"
        }
      ],
      "name": "completePurchase",
      "outputs": [],
      "stateMutability": "payable",
      "type": "function",
      "payable": true
    },
    {
      "inputs": [],
      "name": "getFarmerRequests",
      "outputs": [
        {
          "components": [
            {
              "internalType": "uint256",
              "name": "requestId",
              "type": "uint256"
            },
            {
              "internalType": "uint256",
              "name": "cropID",
              "type": "uint256"
            },
            {
              "internalType": "uint256",
              "name": "quantity",
              "type": "uint256"
            },
            {
              "internalType": "address",
              "name": "buyer",
              "type": "address"
            },
            {
              "internalType": "address",
              "name": "farmer",
              "type": "address"
            },
            {
              "internalType": "uint256",
              "name": "price",
              "type": "uint256"
            },
            {
              "internalType": "enum FarmerPortal.RequestStatus",
              "name": "status",
              "type": "uint8"
            },
            {
              "internalType": "string",
              "name": "message",
              "type": "string"
            },
            {
              "internalType": "uint256",
              "name": "timestamp",
              "type": "uint256"
            }
          ],
          "internalType": "struct FarmerPortal.PurchaseRequest[]",
          "name": "",
          "type": "tuple[]"
        }
      ],
      "stateMutability": "view",
      "type": "function",
      "constant": true
    },
    {
      "inputs": [],
      "name": "getBuyerRequests",
      "outputs": [
        {
          "components": [
            {
              "internalType": "uint256",
              "name": "requestId",
              "type": "uint256"
            },
            {
              "internalType": "uint256",
              "name": "cropID",
              "type": "uint256"
            },
            {
              "internalType": "uint256",
              "name": "quantity",
              "type": "uint256"
            },
            {
              "internalType": "address",
              "name": "buyer",
              "type": "address"
            },
            {
              "internalType": "address",
              "name": "farmer",
              "type": "address"
            },
            {
              "internalType": "uint256",
              "name": "price",
              "type": "uint256"
            },
            {
              "internalType": "enum FarmerPortal.RequestStatus",
              "name": "status",
              "type": "uint8"
            },
            {
              "internalType": "string",
              "name": "message",
              "type": "string"
            },
            {
              "internalType": "uint256",
              "name": "timestamp",
              "type": "uint256"
            }
          ],
          "internalType": "struct FarmerPortal.PurchaseRequest[]",
          "name": "",
          "type": "tuple[]"
        }
      ],
      "stateMutability": "view",
      "type": "function",
      "constant": true
    },
    {
      "inputs": [],
      "name": "getPendingDeliveries",
      "outputs": [
        {
          "components": [
            {
              "internalType": "uint256",
              "name": "cropID",
              "type": "uint256"
            },
            {
              "internalType": "uint256",
              "name": "quantity",
              "type": "uint256"
            },
            {
              "internalType": "address",
              "name": "buyer",
              "type": "address"
            },
            {
              "internalType": "address",
              "name": "farmer",
              "type": "address"
            },
            {
              "internalType": "uint256",
              "name": "amountHeld",
              "type": "uint256"
            },
            {
              "internalType": "bool",
              "name": "delivered",
              "type": "bool"
            }
          ],
          "internalType": "struct FarmerPortal.Purchase[]",
          "name": "",
          "type": "tuple[]"
        }
      ],
      "stateMutability": "view",
      "type": "function",
      "constant": true
    },
    {
      "inputs": [
        {
          "internalType": "uint256",
          "name": "cropID",
          "type": "uint256"
        }
      ],
      "name": "confirmDelivery",
      "outputs": [],
      "stateMutability": "nonpayable",
      "type": "function"
    }
  ],
  "bytecode": "0x6080604052600160085534801561001557600080fd5b50613955806100256000396000f3fe6080604052600436106100f25760003560e01c806390145bb31161008a578063a87430ba11610059578063a87430ba146102d6578063ae73ccec14610309578063bfeee90d1461031e578063fd84cb971461033157600080fd5b806390145bb314610228578063956e89631461024a5780639672ba571461026a578063987ee156146102a557600080fd5b80635fdfb009116100c65780635fdfb009146101b157806379726074146101d35780638c6efadd146101f35780638d6048851461021357600080fd5b8062754eea146100f757806302b8c8cd1461012257806327820851146101445780635a58122514610191575b600080fd5b34801561010357600080fd5b5061010c610351565b6040516101199190612fe8565b60405180910390f35b34801561012e57600080fd5b5061014261013d3660046130bf565b61062d565b005b34801561015057600080fd5b5061018461015f3660046130e9565b6001600160a01b0316600090815260208190526040902054600160a01b900460ff1690565b604051610119919061313c565b34801561019d57600080fd5b506101426101ac366004613150565b6108e0565b3480156101bd57600080fd5b506101c6610c0c565b6040516101199190613195565b3480156101df57600080fd5b506101426101ee366004613310565b610f3f565b3480156101ff57600080fd5b5061014261020e3660046133bd565b61100a565b34801561021f57600080fd5b506101c661148f565b34801561023457600080fd5b5061023d6117bb565b604051610119919061340d565b34801561025657600080fd5b50610142610265366004613495565b611a1e565b34801561027657600080fd5b506102976102853660046130e9565b60036020526000908152604090205481565b604051908152602001610119565b3480156102b157600080fd5b506102c56102c03660046130e9565b611bcd565b604051610119959493929190613539565b3480156102e257600080fd5b506102f66102f13660046130e9565b611f02565b60405161011997969594939291906135a0565b34801561031557600080fd5b5061010c612170565b61014261032c36600461361f565b612550565b34801561033d57600080fd5b5061014261034c36600461361f565b612b6b565b33600090815260208190526040902054606090600160a81b900460ff166103935760405162461bcd60e51b815260040161038a90613638565b60405180910390fd5b600133600090815260208190526040902054600160a01b900460ff1660028111156103c0576103c0613112565b146103dd5760405162461bcd60e51b815260040161038a90613665565b33600090815260016020908152604080832080548251818502810185019093528083529193909284015b8282101561062457838290600052602060002090600702016040518060e001604052908160008201805461043a90613693565b80601f016020809104026020016040519081016040528092919081815260200182805461046690613693565b80156104b35780601f10610488576101008083540402835291602001916104b3565b820191906000526020600020905b81548152906001019060200180831161049657829003601f168201915b505050505081526020016001820154815260200160028201548152602001600382015481526020016004820180546104ea90613693565b80601f016020809104026020016040519081016040528092919081815260200182805461051690613693565b80156105635780601f1061053857610100808354040283529160200191610563565b820191906000526020600020905b81548152906001019060200180831161054657829003601f168201915b505050918352505060058201546001600160a01b0316602082015260068201805460409092019161059390613693565b80601f01602080910402602001604051908101604052809291908181526020018280546105bf90613693565b801561060c5780601f106105e15761010080835404028352916020019161060c565b820191906000526020600020905b8154815290600101906020018083116105ef57829003601f168201915b50505050508152505081526020019060010190610407565b50505050905090565b60ff811660011480610642575060ff81166002145b61067d5760405162461bcd60e51b815260206004820152600c60248201526b496e76616c696420726f6c6560a01b604482015260640161038a565b33600090815260208190526040902054600160a81b900460ff16156106e45760405162461bcd60e51b815260206004820152601760248201527f5573657220616c72656164792072656769737465726564000000000000000000604482015260640161038a565b6040518060e00160405280336001600160a01b031681526020018260ff16600281111561071357610713613112565b600281111561072457610724613112565b815260016020808301919091526040805180830182526000808252828501919091528151808401835281815260608501528151808401835281815260808501528151808401835281815260a090940193909352338352828252909120825181546001600160a01b03919091166001600160a01b031982168117835592840151919283916001600160a81b03191617600160a01b8360028111156107c9576107c9613112565b021790555060408201518154901515600160a81b0260ff60a81b19909116178155606082015160018201906107fe908261371c565b5060808201516002820190610813908261371c565b5060a08201516003820190610828908261371c565b5060c0820151600482019061083d908261371c565b503391507f8e18574f8a7333e6a87112742a55853a643e2f0550f4e1a3a2c3f1bb2994441d905060ff8316600281111561087957610879613112565b604051610886919061313c565b60405180910390a260001960ff8216016108dd57600480546001810182556000919091527f8a35acfbc15ff81a39ae7d344fd709f28e8600b4aa8c65c6b64bfe7fe36bd19b0180546001600160a01b031916331790555b50565b33600090815260208190526040902054600160a81b900460ff166109165760405162461bcd60e51b815260040161038a90613638565b600133600090815260208190526040902054600160a01b900460ff16600281111561094357610943613112565b146109605760405162461bcd60e51b815260040161038a90613665565b60008060005b60055481108015610975575081155b156109bf57846005828154811061098e5761098e6137dc565b906000526020600020906009020160000154036109ad57809250600191505b806109b781613808565b915050610966565b5080610a015760405162461bcd60e51b815260206004820152601160248201527014995c5d595cdd081b9bdd08199bdd5b99607a1b604482015260640161038a565b336001600160a01b031660058381548110610a1e57610a1e6137dc565b60009182526020909120600460099092020101546001600160a01b031614610a885760405162461bcd60e51b815260206004820152601e60248201527f4e6f7420796f7572207265717565737420746f20726573706f6e6420746f0000604482015260640161038a565b600060058381548110610a9d57610a9d6137dc565b600091825260209091206006600990920201015460ff166003811115610ac557610ac5613112565b14610b0b5760405162461bcd60e51b815260206004820152601660248201527552657175657374206973206e6f742070656e64696e6760501b604482015260640161038a565b8215610b5d57600160058381548110610b2657610b266137dc565b60009182526020909120600660099092020101805460ff19166001836003811115610b5357610b53613112565b0217905550610ba5565b600260058381548110610b7257610b726137dc565b60009182526020909120600660099092020101805460ff19166001836003811115610b9f57610b9f613112565b02179055505b837fc8926ec9c62d9b87ca5e4dfb0b49c1d0797cde714599e2c6d5663e5b813413ab60058481548110610bda57610bda6137dc565b6000918252602090912060066009909202010154604051610bfe9160ff1690613821565b60405180910390a250505050565b33600090815260208190526040902054606090600160a81b900460ff16610c455760405162461bcd60e51b815260040161038a90613638565b600133600090815260208190526040902054600160a01b900460ff166002811115610c7257610c72613112565b14610c8f5760405162461bcd60e51b815260040161038a90613665565b33600090815260066020908152604080832080548251818502810185019093528083529192909190830182828015610ce657602002820191906000526020600020905b815481526020019060010190808311610cd2575b505050505090506000815167ffffffffffffffff811115610d0957610d0961326d565b604051908082528060200260200182016040528015610d4257816020015b610d2f612f33565b815260200190600190039081610d275790505b50905060005b8251811015610f38576000838281518110610d6557610d656137dc565b6020026020010151905060005b600554811015610f23578160058281548110610d9057610d906137dc565b90600052602060002090600902016000015403610f115760058181548110610dba57610dba6137dc565b600091825260209182902060408051610120810182526009909302909101805483526001810154938301939093526002830154908201526003808301546001600160a01b0390811660608401526004840154166080830152600583015460a0830152600683015491929160c084019160ff90911690811115610e3e57610e3e613112565b6003811115610e4f57610e4f613112565b8152602001600782018054610e6390613693565b80601f0160208091040260200160405190810160405280929190818152602001828054610e8f90613693565b8015610edc5780601f10610eb157610100808354040283529160200191610edc565b820191906000526020600020905b815481529060010190602001808311610ebf57829003601f168201915b50505050508152602001600882015481525050848481518110610f0157610f016137dc565b6020026020010181905250610f23565b80610f1b81613808565b915050610d72565b50508080610f3090613808565b915050610d48565b5091505090565b33600090815260208190526040902054600160a81b900460ff16610f755760405162461bcd60e51b815260040161038a90613638565b33600090815260208190526040902060018101610f92868261371c565b5060028101610fa1858261371c565b5060038101610fb0848261371c565b5060048101610fbf838261371c565b50336001600160a01b03167fc13dafd9d9a1258e2f2de748cef0b799dbcc614ed620f5b0564ae615a759795c8686604051610ffb92919061382f565b60405180910390a25050505050565b33600090815260208190526040902054600160a81b900460ff166110405760405162461bcd60e51b815260040161038a90613638565b600233600090815260208190526040902054600160a01b900460ff16600281111561106d5761106d613112565b1461108a5760405162461bcd60e51b815260040161038a9061385d565b6000806000805b600454811080156110a0575081155b15611183576000600482815481106110ba576110ba6137dc565b60009182526020808320909101546001600160a01b031680835260019091526040822054909250905b81811080156110f0575084155b1561116d576001600160a01b038316600090815260016020526040812080548390811061111f5761111f6137dc565b906000526020600020906007020190508a8160020154148015611146575089816003015410155b1561115a5783975080600101549650600195505b508061116581613808565b9150506110e3565b505050808061117b90613808565b915050611091565b50806111e25760405162461bcd60e51b815260206004820152602860248201527f43726f70206e6f7420666f756e64206f7220696e73756666696369656e7420716044820152673ab0b73a34ba3c9760c11b606482015260840161038a565b60088054600091826111f383613808565b9190505590506000604051806101200160405280838152602001898152602001888152602001336001600160a01b03168152602001866001600160a01b031681526020018581526020016000600381111561125057611250613112565b81526020808201899052426040928301526005805460018181018355600092909252845160099091027f036b6384b5eca791c62761152d0c79bb0604c104a5fb6f4eb0703f3154bb3db08101918255928501517f036b6384b5eca791c62761152d0c79bb0604c104a5fb6f4eb0703f3154bb3db1840155928401517f036b6384b5eca791c62761152d0c79bb0604c104a5fb6f4eb0703f3154bb3db283015560608401517f036b6384b5eca791c62761152d0c79bb0604c104a5fb6f4eb0703f3154bb3db3830180546001600160a01b039283166001600160a01b03199182161790915560808601517f036b6384b5eca791c62761152d0c79bb0604c104a5fb6f4eb0703f3154bb3db48501805491909316911617905560a08401517f036b6384b5eca791c62761152d0c79bb0604c104a5fb6f4eb0703f3154bb3db583015560c08401517f036b6384b5eca791c62761152d0c79bb0604c104a5fb6f4eb0703f3154bb3db690920180549495508594909160ff19909116908360038111156113db576113db613112565b021790555060e082015160078201906113f4908261371c565b5061010091909101516008909101556001600160a01b0385166000818152600660209081526040808320805460018082018355918552838520018790553380855260078452828520805492830181558552938390200186905580518c81529182018b905285917ff37fee757e7c509a1197948d535e31a21fa8d59b7f90b3f26415031452980109910160405180910390a45050505050505050565b33600090815260208190526040902054606090600160a81b900460ff166114c85760405162461bcd60e51b815260040161038a90613638565b600233600090815260208190526040902054600160a01b900460ff1660028111156114f5576114f5613112565b146115125760405162461bcd60e51b815260040161038a9061385d565b3360009081526007602090815260408083208054825181850281018501909352808352919290919083018282801561156957602002820191906000526020600020905b815481526020019060010190808311611555575b505050505090506000815167ffffffffffffffff81111561158c5761158c61326d565b6040519080825280602002602001820160405280156115c557816020015b6115b2612f33565b8152602001906001900390816115aa5790505b50905060005b8251811015610f385760008382815181106115e8576115e86137dc565b6020026020010151905060005b6005548110156117a6578160058281548110611613576116136137dc565b90600052602060002090600902016000015403611794576005818154811061163d5761163d6137dc565b600091825260209182902060408051610120810182526009909302909101805483526001810154938301939093526002830154908201526003808301546001600160a01b0390811660608401526004840154166080830152600583015460a0830152600683015491929160c084019160ff909116908111156116c1576116c1613112565b60038111156116d2576116d2613112565b81526020016007820180546116e690613693565b80601f016020809104026020016040519081016040528092919081815260200182805461171290613693565b801561175f5780601f106117345761010080835404028352916020019161175f565b820191906000526020600020905b81548152906001019060200180831161174257829003601f168201915b50505050508152602001600882015481525050848481518110611784576117846137dc565b60200260200101819052506117a6565b8061179e81613808565b9150506115f5565b505080806117b390613808565b9150506115cb565b33600090815260208190526040902054606090600160a81b900460ff166117f45760405162461bcd60e51b815260040161038a90613638565b600233600090815260208190526040902054600160a01b900460ff16600281111561182157611821613112565b1461183e5760405162461bcd60e51b815260040161038a9061385d565b336000908152600260205260408120815b81548110156118a55781818154811061186a5761186a6137dc565b600091825260209091206005600690920201015460ff16611893578261188f81613808565b9350505b8061189d81613808565b91505061184f565b5060008267ffffffffffffffff8111156118c1576118c161326d565b60405190808252806020026020018201604052801561192157816020015b6040805160c08101825260008082526020808301829052928201819052606082018190526080820181905260a082015282526000199092019101816118df5790505b5090506000805b8354811015611a1457838181548110611943576119436137dc565b600091825260209091206005600690920201015460ff16611a0257838181548110611970576119706137dc565b60009182526020918290206040805160c08101825260069093029091018054835260018101549383019390935260028301546001600160a01b039081169183019190915260038301541660608201526004820154608082015260059091015460ff16151560a082015283836119e481613808565b9450815181106119f6576119f66137dc565b60200260200101819052505b80611a0c81613808565b915050611928565b5090935050505090565b33600090815260208190526040902054600160a81b900460ff16611a545760405162461bcd60e51b815260040161038a90613638565b600133600090815260208190526040902054600160a01b900460ff166002811115611a8157611a81613112565b14611a9e5760405162461bcd60e51b815260040161038a90613665565b6040805160e081018252878152602080820188905281830187905260608201869052608082018590523360a0830181905260c0830185905260009081526001808352938120805494850181558152208151919283926007909102909101908190611b08908261371c565b5060208201516001820155604082015160028201556060820151600382015560808201516004820190611b3b908261371c565b5060a08201516005820180546001600160a01b0319166001600160a01b0390921691909117905560c08201516006820190611b76908261371c565b505050336001600160a01b03167fadb9330eb32afa957eff09d032c3a3cb7fcae7fef5068c01f1b9ffaa4c692e4b888888888888604051611bbc9695949392919061388a565b60405180910390a250505050505050565b6001600160a01b038116600090815260208190526040812054606091829182918291600160a81b900460ff16611c155760405162461bcd60e51b815260040161038a90613638565b6001600160a01b03868116600090815260208181526040808320815160e08101909252805494851682529293909291830190600160a01b900460ff166002811115611c6257611c62613112565b6002811115611c7357611c73613112565b81528154600160a81b900460ff1615156020820152600182018054604090920191611c9d90613693565b80601f0160208091040260200160405190810160405280929190818152602001828054611cc990613693565b8015611d165780601f10611ceb57610100808354040283529160200191611d16565b820191906000526020600020905b815481529060010190602001808311611cf957829003601f168201915b50505050508152602001600282018054611d2f90613693565b80601f0160208091040260200160405190810160405280929190818152602001828054611d5b90613693565b8015611da85780601f10611d7d57610100808354040283529160200191611da8565b820191906000526020600020905b815481529060010190602001808311611d8b57829003601f168201915b50505050508152602001600382018054611dc190613693565b80601f0160208091040260200160405190810160405280929190818152602001828054611ded90613693565b8015611e3a5780601f10611e0f57610100808354040283529160200191611e3a565b820191906000526020600020905b815481529060010190602001808311611e1d57829003601f168201915b50505050508152602001600482018054611e5390613693565b80601f0160208091040260200160405190810160405280929190818152602001828054611e7f90613693565b8015611ecc5780601f10611ea157610100808354040283529160200191611ecc565b820191906000526020600020905b815481529060010190602001808311611eaf57829003601f168201915b505050919092525050506060810151608082015160a083015160c0840151602090940151929b919a509850919650945092505050565b600060208190529081526040902080546001820180546001600160a01b0383169360ff600160a01b8504811694600160a81b900416929091611f4390613693565b80601f0160208091040260200160405190810160405280929190818152602001828054611f6f90613693565b8015611fbc5780601f10611f9157610100808354040283529160200191611fbc565b820191906000526020600020905b815481529060010190602001808311611f9f57829003601f168201915b505050505090806002018054611fd190613693565b80601f0160208091040260200160405190810160405280929190818152602001828054611ffd90613693565b801561204a5780601f1061201f5761010080835404028352916020019161204a565b820191906000526020600020905b81548152906001019060200180831161202d57829003601f168201915b50505050509080600301805461205f90613693565b80601f016020809104026020016040519081016040528092919081815260200182805461208b90613693565b80156120d85780601f106120ad576101008083540402835291602001916120d8565b820191906000526020600020905b8154815290600101906020018083116120bb57829003601f168201915b5050505050908060040180546120ed90613693565b80601f016020809104026020016040519081016040528092919081815260200182805461211990613693565b80156121665780601f1061213b57610100808354040283529160200191612166565b820191906000526020600020905b81548152906001019060200180831161214957829003601f168201915b5050505050905087565b60606000805b6004548110156121da576001600060048381548110612197576121976137dc565b60009182526020808320909101546001600160a01b031683528201929092526040019020546121c690836138e2565b9150806121d281613808565b915050612176565b5060008167ffffffffffffffff8111156121f6576121f661326d565b60405190808252806020026020018201604052801561227057816020015b61225d6040518060e00160405280606081526020016000815260200160008152602001600081526020016060815260200160006001600160a01b03168152602001606081525090565b8152602001906001900390816122145790505b5090506000805b60045481101561254757600060048281548110612296576122966137dc565b60009182526020808320909101546001600160a01b031680835260019091526040822054909250905b81811015612531576001600160a01b03831660009081526001602052604090208054829081106122f1576122f16137dc565b90600052602060002090600702016040518060e001604052908160008201805461231a90613693565b80601f016020809104026020016040519081016040528092919081815260200182805461234690613693565b80156123935780601f1061236857610100808354040283529160200191612393565b820191906000526020600020905b81548152906001019060200180831161237657829003601f168201915b505050505081526020016001820154815260200160028201548152602001600382015481526020016004820180546123ca90613693565b80601f01602080910402602001604051908101604052809291908181526020018280546123f690613693565b80156124435780601f1061241857610100808354040283529160200191612443565b820191906000526020600020905b81548152906001019060200180831161242657829003601f168201915b505050918352505060058201546001600160a01b0316602082015260068201805460409092019161247390613693565b80601f016020809104026020016040519081016040528092919081815260200182805461249f90613693565b80156124ec5780601f106124c1576101008083540402835291602001916124ec565b820191906000526020600020905b8154815290600101906020018083116124cf57829003601f168201915b50505050508152505086868061250190613808565b975081518110612513576125136137dc565b6020026020010181905250808061252990613808565b9150506122bf565b505050808061253f90613808565b915050612277565b50909392505050565b33600090815260208190526040902054600160a81b900460ff166125865760405162461bcd60e51b815260040161038a90613638565b600233600090815260208190526040902054600160a01b900460ff1660028111156125b3576125b3613112565b146125d05760405162461bcd60e51b815260040161038a9061385d565b60008060005b600554811080156125e5575081155b1561262f5783600582815481106125fe576125fe6137dc565b9060005260206000209060090201600001540361261d57809250600191505b8061262781613808565b9150506125d6565b50806126715760405162461bcd60e51b815260206004820152601160248201527014995c5d595cdd081b9bdd08199bdd5b99607a1b604482015260640161038a565b336001600160a01b03166005838154811061268e5761268e6137dc565b60009182526020909120600360099092020101546001600160a01b0316146126eb5760405162461bcd60e51b815260206004820152601060248201526f139bdd081e5bdd5c881c995c5d595cdd60821b604482015260640161038a565b600160058381548110612700576127006137dc565b600091825260209091206006600990920201015460ff16600381111561272857612728613112565b146127755760405162461bcd60e51b815260206004820152601d60248201527f5265717565737420686173206e6f74206265656e206163636570746564000000604482015260640161038a565b60006005838154811061278a5761278a6137dc565b906000526020600020906009020190506000816002015482600501546127b091906138f5565b90508034146128015760405162461bcd60e51b815260206004820152601860248201527f496e636f7272656374207061796d656e7420616d6f756e740000000000000000604482015260640161038a565b6000805b60048401546001600160a01b03166000908152600160205260409020548110801561282e575081155b156129825760018085015460048601546001600160a01b031660009081526020929092526040909120805483908110612869576128696137dc565b9060005260206000209060070201600201540361297057600284015460048501546001600160a01b031660009081526001602052604090208054839081106128b3576128b36137dc565b90600052602060002090600702016003015410156129135760405162461bcd60e51b815260206004820152601f60248201527f496e73756666696369656e74207175616e7469747920617661696c61626c6500604482015260640161038a565b600284015460048501546001600160a01b03166000908152600160205260409020805483908110612946576129466137dc565b90600052602060002090600702016003016000828254612966919061390c565b9091555060019250505b8061297a81613808565b915050612805565b50806129d05760405162461bcd60e51b815260206004820152601860248201527f43726f70206e6f206c6f6e67657220617661696c61626c650000000000000000604482015260640161038a565b33600090815260036020526040812080548492906129ef9084906138e2565b9091555050336000818152600260208181526040808420815160c0810183526001808b015482528a8601548286019081529382019788526004808c01546001600160a01b0390811660608501908152608085018d815260a086018b815287548087018955978c5298909a209451600696870290950194855595518484015598519683018054978a166001600160a01b031998891617905593516003808401805492909a16919097161790975594519185019190915590516005909301805493151560ff199485161790558601805491939092919091169083021790555060048301546001840154600285015460408051928352602083019190915281018490526001600160a01b039091169033907fa048cb20af3564a7e7890fcaa3143722d8eea32e8c74cef665bb4ec1f2f48d829060600160405180910390a3857fc8926ec9c62d9b87ca5e4dfb0b49c1d0797cde714599e2c6d5663e5b813413ab6003604051612b5b9190613821565b60405180910390a2505050505050565b33600090815260208190526040902054600160a81b900460ff16612ba15760405162461bcd60e51b815260040161038a90613638565b600233600090815260208190526040902054600160a01b900460ff166002811115612bce57612bce613112565b14612beb5760405162461bcd60e51b815260040161038a9061385d565b336000908152600260205260408120905b8154811015612eea5782828281548110612c1857612c186137dc565b906000526020600020906006020160000154148015612c5d5750818181548110612c4457612c446137dc565b600091825260209091206005600690920201015460ff16155b15612ed8576001828281548110612c7657612c766137dc565b906000526020600020906006020160050160006101000a81548160ff0219169083151502179055506000828281548110612cb257612cb26137dc565b6000918252602082206003600690920201015484546001600160a01b039091169250849084908110612ce657612ce66137dc565b906000526020600020906006020160040154905060008111612d4a5760405162461bcd60e51b815260206004820181905260248201527f4e6f2066756e647320617661696c61626c6520666f72207472616e736665722e604482015260640161038a565b33600090815260036020526040902054811115612da95760405162461bcd60e51b815260206004820152601c60248201527f496e73756666696369656e7420657363726f772062616c616e63652e00000000604482015260640161038a565b3360009081526003602052604081208054839290612dc890849061390c565b90915550506040516000906001600160a01b0384169061c35090849084818181858888f193505050503d8060008114612e1d576040519150601f19603f3d011682016040523d82523d6000602084013e612e22565b606091505b5050905080612e8a5760405162461bcd60e51b815260206004820152602e60248201527f5472616e73616374696f6e206661696c65642c20706f737369626c792064756560448201526d103a379033b0b9903634b6b4ba1760911b606482015260840161038a565b60408051878152602081018490526001600160a01b0385169133917fd5e90be9a023903c75b4f6929a82787cf6fd6c8e38c3f8801cc9705825496b64910160405180910390a3505050505050565b80612ee281613808565b915050612bfc565b5060405162461bcd60e51b815260206004820152601a60248201527f4e6f2070656e64696e672064656c697665727920666f756e642e000000000000604482015260640161038a565b60405180610120016040528060008152602001600081526020016000815260200160006001600160a01b0316815260200160006001600160a01b031681526020016000815260200160006003811115612f8e57612f8e613112565b815260200160608152602001600081525090565b6000815180845260005b81811015612fc857602081850181015186830182015201612fac565b506000602082860101526020601f19601f83011685010191505092915050565b60006020808301818452808551808352604092508286019150828160051b87010184880160005b838110156130b157603f19898403018552815160e0815181865261303582870182612fa2565b9150508882015189860152878201518886015260608083015181870152506080808301518683038288015261306a8382612fa2565b60a0858101516001600160a01b03169089015260c09485015188820395890195909552925061309d915082905083612fa2565b96890196945050509086019060010161300f565b509098975050505050505050565b6000602082840312156130d157600080fd5b813560ff811681146130e257600080fd5b9392505050565b6000602082840312156130fb57600080fd5b81356001600160a01b03811681146130e257600080fd5b634e487b7160e01b600052602160045260246000fd5b6003811061313857613138613112565b9052565b6020810161314a8284613128565b92915050565b6000806040838503121561316357600080fd5b823591506020830135801515811461317a57600080fd5b809150509250929050565b6004811061313857613138613112565b60006020808301818452808551808352604092508286019150828160051b87010184880160005b838110156130b157603f1989840301855281516101208151855288820151898601528782015188860152606080830151613200828801826001600160a01b03169052565b50506080828101516001600160a01b03169086015260a0808301519086015260c08083015161323182880182613185565b505060e080830151828288015261324a83880182612fa2565b6101009485015197909401969096525050948701949250908601906001016131bc565b634e487b7160e01b600052604160045260246000fd5b600082601f83011261329457600080fd5b813567ffffffffffffffff808211156132af576132af61326d565b604051601f8301601f19908116603f011681019082821181831017156132d7576132d761326d565b816040528381528660208588010111156132f057600080fd5b836020870160208301376000602085830101528094505050505092915050565b6000806000806080858703121561332657600080fd5b843567ffffffffffffffff8082111561333e57600080fd5b61334a88838901613283565b9550602087013591508082111561336057600080fd5b61336c88838901613283565b9450604087013591508082111561338257600080fd5b61338e88838901613283565b935060608701359150808211156133a457600080fd5b506133b187828801613283565b91505092959194509250565b6000806000606084860312156133d257600080fd5b8335925060208401359150604084013567ffffffffffffffff8111156133f757600080fd5b61340386828701613283565b9150509250925092565b602080825282518282018190526000919060409081850190868401855b82811015613488578151805185528681015187860152858101516001600160a01b0390811687870152606080830151909116908601526080808201519086015260a09081015115159085015260c0909301929085019060010161342a565b5091979650505050505050565b60008060008060008060c087890312156134ae57600080fd5b863567ffffffffffffffff808211156134c657600080fd5b6134d28a838b01613283565b975060208901359650604089013595506060890135945060808901359150808211156134fd57600080fd5b6135098a838b01613283565b935060a089013591508082111561351f57600080fd5b5061352c89828a01613283565b9150509295509295509295565b60a08152600061354c60a0830188612fa2565b828103602084015261355e8188612fa2565b905082810360408401526135728187612fa2565b905082810360608401526135868186612fa2565b9150506135966080830184613128565b9695505050505050565b6001600160a01b03881681526135b96020820188613128565b851515604082015260e0606082015260006135d760e0830187612fa2565b82810360808401526135e98187612fa2565b905082810360a08401526135fd8186612fa2565b905082810360c08401526136118185612fa2565b9a9950505050505050505050565b60006020828403121561363157600080fd5b5035919050565b602080825260139082015272155cd95c881b9bdd081c9959da5cdd195c9959606a1b604082015260600190565b60208082526014908201527313db9b1e4819985c9b595c9cc8185b1b1bddd95960621b604082015260600190565b600181811c908216806136a757607f821691505b6020821081036136c757634e487b7160e01b600052602260045260246000fd5b50919050565b601f82111561371757600081815260208120601f850160051c810160208610156136f45750805b601f850160051c820191505b8181101561371357828155600101613700565b5050505b505050565b815167ffffffffffffffff8111156137365761373661326d565b61374a816137448454613693565b846136cd565b602080601f83116001811461377f57600084156137675750858301515b600019600386901b1c1916600185901b178555613713565b600085815260208120601f198616915b828110156137ae5788860151825594840194600190910190840161378f565b50858210156137cc5787850151600019600388901b60f8161c191681555b5050505050600190811b01905550565b634e487b7160e01b600052603260045260246000fd5b634e487b7160e01b600052601160045260246000fd5b60006001820161381a5761381a6137f2565b5060010190565b6020810161314a8284613185565b6040815260006138426040830185612fa2565b82810360208401526138548185612fa2565b95945050505050565b60208082526013908201527213db9b1e48189d5e595c9cc8185b1b1bddd959606a1b604082015260600190565b60c08152600061389d60c0830189612fa2565b87602084015286604084015285606084015282810360808401526138c18186612fa2565b905082810360a08401526138d58185612fa2565b9998505050505050505050565b8082018082111561314a5761314a6137f2565b808202811582820484141761314a5761314a6137f2565b8181038181111561314a5761314a6137f256fea2646970667358221220d9f5b8de2d7514e76d7a13a0ab626c515ae926bee2868bc973d32c2ccd116e8464736f6c63430008130033",
  "immutableReferences": {},
  "source": "// SPDX-License-Identifier: MIT\npragma solidity ^0.8.19;\n\ncontract FarmerPortal {\n    enum UserRole { Unregistered, Farmer, Buyer }\n    enum RequestStatus { Pending, Accepted, Rejected, Completed }\n\n    struct User {\n        address wallet;\n        UserRole role;\n        bool registered;\n        string name;\n        string profileImageCID;\n        string location;\n        string contact;\n    }\n\n    struct CropListing {\n        string cropName;\n        uint256 price;\n        uint256 cropID;\n        uint256 quantity;\n        string deliveryDate;\n        address farmer;\n        string imageCID;\n    }\n\n    struct Purchase {\n        uint256 cropID;\n        uint256 quantity;\n        address buyer;\n        address farmer;\n        uint256 amountHeld;\n        bool delivered;\n    }\n\n    struct PurchaseRequest {\n        uint256 requestId;\n        uint256 cropID;\n        uint256 quantity;\n        address buyer;\n        address farmer;\n        uint256 price;\n        RequestStatus status;\n        string message;\n        uint256 timestamp;\n    }\n\n    mapping(address => User) public users;\n    mapping(address => CropListing[]) private farmerListings;\n    mapping(address => Purchase[]) private deliveries;\n    mapping(address => uint256) public escrowBalances;\n    address[] private farmers;\n    \n    PurchaseRequest[] private purchaseRequests;\n    mapping(address => uint[]) private farmerRequests; // Requests for each farmer\n    mapping(address => uint[]) private buyerRequests; // Requests from each buyer\n    uint256 private nextRequestId = 1;\n\n    event UserRegistered(address indexed user, UserRole role);\n    event UserProfileUpdated(address indexed user, string name, string profileImageCID);\n    event CropListed(address indexed farmer, string cropName, uint256 price, uint256 cropID, uint256 quantity, string deliveryDate, string imageCID);\n    event CropBought(address indexed buyer, address indexed farmer, uint256 cropID, uint256 quantity, uint256 amountHeld);\n    event DeliveryConfirmed(address indexed buyer, address indexed farmer, uint256 cropID, uint256 amountReleased);\n    event PurchaseRequested(uint256 indexed requestId, address indexed buyer, address indexed farmer, uint256 cropID, uint256 quantity);\n    event RequestStatusChanged(uint256 indexed requestId, RequestStatus status);\n\n    modifier onlyFarmer() {\n        require(users[msg.sender].registered, \"User not registered\");\n        require(users[msg.sender].role == UserRole.Farmer, \"Only farmers allowed\");\n        _;\n    }\n\n    modifier onlyBuyer() {\n        require(users[msg.sender].registered, \"User not registered\");\n        require(users[msg.sender].role == UserRole.Buyer, \"Only buyers allowed\");\n        _;\n    }\n\n    function registerUser(uint8 role) external {\n        require(role == uint8(UserRole.Farmer) || role == uint8(UserRole.Buyer), \"Invalid role\");\n        require(!users[msg.sender].registered, \"User already registered\");\n\n        users[msg.sender] = User(msg.sender, UserRole(role), true, \"\", \"\", \"\", \"\");\n        emit UserRegistered(msg.sender, UserRole(role));\n\n        if (role == uint8(UserRole.Farmer)) {\n            farmers.push(msg.sender);\n        }\n    }\n\n    function updateUserProfile(string memory _name, string memory _profileImageCID, string memory _location, string memory _contact) external {\n        require(users[msg.sender].registered, \"User not registered\");\n        \n        User storage user = users[msg.sender];\n        user.name = _name;\n        user.profileImageCID = _profileImageCID;\n        user.location = _location;\n        user.contact = _contact;\n        \n        emit UserProfileUpdated(msg.sender, _name, _profileImageCID);\n    }\n\n    function getUserProfile(address _userAddress) external view returns (string memory, string memory, string memory, string memory, UserRole) {\n        require(users[_userAddress].registered, \"User not registered\");\n        User memory user = users[_userAddress];\n        return (user.name, user.profileImageCID, user.location, user.contact, user.role);\n    }\n\n    function addListing(\n        string memory _cropName, \n        uint256 _price, \n        uint256 _cropID, \n        uint256 _quantity, \n        string memory _deliveryDate,\n        string memory _imageCID\n    ) external onlyFarmer {\n        CropListing memory newCrop = CropListing(\n            _cropName, \n            _price, \n            _cropID, \n            _quantity, \n            _deliveryDate, \n            msg.sender,\n            _imageCID\n        );\n        farmerListings[msg.sender].push(newCrop);\n        emit CropListed(msg.sender, _cropName, _price, _cropID, _quantity, _deliveryDate, _imageCID);\n    }\n\n    function getMyListings() external view onlyFarmer returns (CropListing[] memory) {\n        return farmerListings[msg.sender];\n    }\n\n    function getUserRole(address _user) external view returns (UserRole) {\n        return users[_user].role;\n    }\n\n    function getAllListings() external view returns (CropListing[] memory) {\n        uint256 totalCrops = 0;\n        for (uint256 i = 0; i < farmers.length; i++) {\n            totalCrops += farmerListings[farmers[i]].length;\n        }\n\n        CropListing[] memory allListings = new CropListing[](totalCrops);\n        uint256 index = 0;\n\n        for (uint256 i = 0; i < farmers.length; i++) {\n            address farmer = farmers[i]; \n            uint256 len = farmerListings[farmer].length;\n            for (uint256 j = 0; j < len; j++) {\n                allListings[index++] = farmerListings[farmer][j];\n            }\n        }\n\n        return allListings;\n    }\n\n    // New function for buyers to request purchase\n    function requestPurchase(uint256 cropID, uint256 quantity, string memory message) external onlyBuyer {\n        // Find the crop\n        address farmerAddress;\n        uint256 price;\n        bool found = false;\n        \n        for (uint256 i = 0; i < farmers.length && !found; i++) {\n            address farmer = farmers[i];\n            uint256 len = farmerListings[farmer].length;\n\n            for (uint256 j = 0; j < len && !found; j++) {\n                CropListing storage crop = farmerListings[farmer][j];\n\n                if (crop.cropID == cropID && crop.quantity >= quantity) {\n                    farmerAddress = farmer;\n                    price = crop.price;\n                    found = true;\n                }\n            }\n        }\n        \n        require(found, \"Crop not found or insufficient quantity.\");\n        \n        // Create a purchase request\n        uint256 requestId = nextRequestId++;\n        PurchaseRequest memory newRequest = PurchaseRequest({\n            requestId: requestId,\n            cropID: cropID,\n            quantity: quantity,\n            buyer: msg.sender,\n            farmer: farmerAddress,\n            price: price,\n            status: RequestStatus.Pending,\n            message: message,\n            timestamp: block.timestamp\n        });\n        \n        purchaseRequests.push(newRequest);\n        farmerRequests[farmerAddress].push(requestId);\n        buyerRequests[msg.sender].push(requestId);\n        \n        emit PurchaseRequested(requestId, msg.sender, farmerAddress, cropID, quantity);\n    }\n    \n    // Function for farmers to accept or reject purchase requests\n    function respondToPurchaseRequest(uint256 requestId, bool accept) external onlyFarmer {\n        // Find the request\n        uint256 index = 0;\n        bool found = false;\n        \n        for (uint256 i = 0; i < purchaseRequests.length && !found; i++) {\n            if (purchaseRequests[i].requestId == requestId) {\n                index = i;\n                found = true;\n            }\n        }\n        \n        require(found, \"Request not found\");\n        require(purchaseRequests[index].farmer == msg.sender, \"Not your request to respond to\");\n        require(purchaseRequests[index].status == RequestStatus.Pending, \"Request is not pending\");\n        \n        if (accept) {\n            purchaseRequests[index].status = RequestStatus.Accepted;\n        } else {\n            purchaseRequests[index].status = RequestStatus.Rejected;\n        }\n        \n        emit RequestStatusChanged(requestId, purchaseRequests[index].status);\n    }\n    \n    // Function for buyers to complete the purchase after acceptance\n    function completePurchase(uint256 requestId) external payable onlyBuyer {\n        // Find the request\n        uint256 index = 0;\n        bool found = false;\n        \n        for (uint256 i = 0; i < purchaseRequests.length && !found; i++) {\n            if (purchaseRequests[i].requestId == requestId) {\n                index = i;\n                found = true;\n            }\n        }\n        \n        require(found, \"Request not found\");\n        require(purchaseRequests[index].buyer == msg.sender, \"Not your request\");\n        require(purchaseRequests[index].status == RequestStatus.Accepted, \"Request has not been accepted\");\n        \n        PurchaseRequest storage request = purchaseRequests[index];\n        uint256 totalPrice = request.price * request.quantity;\n        \n        require(msg.value == totalPrice, \"Incorrect payment amount\");\n        \n        // Update crop quantity\n        bool cropFound = false;\n        for (uint256 i = 0; i < farmerListings[request.farmer].length && !cropFound; i++) {\n            if (farmerListings[request.farmer][i].cropID == request.cropID) {\n                require(farmerListings[request.farmer][i].quantity >= request.quantity, \"Insufficient quantity available\");\n                farmerListings[request.farmer][i].quantity -= request.quantity;\n                cropFound = true;\n            }\n        }\n        \n        require(cropFound, \"Crop no longer available\");\n        \n        // Add to escrow\n                    escrowBalances[msg.sender] += totalPrice;\n\n        // Create a purchase record\n                    deliveries[msg.sender].push(\n                        Purchase({\n                cropID: request.cropID,\n                quantity: request.quantity,\n                            buyer: msg.sender,\n                farmer: request.farmer,\n                            amountHeld: totalPrice,\n                            delivered: false\n                        })\n                    );\n\n        // Update request status\n        request.status = RequestStatus.Completed;\n        \n        emit CropBought(msg.sender, request.farmer, request.cropID, request.quantity, totalPrice);\n        emit RequestStatusChanged(requestId, RequestStatus.Completed);\n    }\n\n    // Function to get purchase requests for a farmer\n    function getFarmerRequests() external view onlyFarmer returns (PurchaseRequest[] memory) {\n        uint256[] memory requestIds = farmerRequests[msg.sender];\n        PurchaseRequest[] memory requests = new PurchaseRequest[](requestIds.length);\n        \n        for (uint256 i = 0; i < requestIds.length; i++) {\n            uint256 requestId = requestIds[i];\n            \n            // Find the request in the array\n            for (uint256 j = 0; j < purchaseRequests.length; j++) {\n                if (purchaseRequests[j].requestId == requestId) {\n                    requests[i] = purchaseRequests[j];\n                    break;\n                }\n            }\n        }\n        \n        return requests;\n    }\n    \n    // Function to get purchase requests for a buyer\n    function getBuyerRequests() external view onlyBuyer returns (PurchaseRequest[] memory) {\n        uint256[] memory requestIds = buyerRequests[msg.sender];\n        PurchaseRequest[] memory requests = new PurchaseRequest[](requestIds.length);\n        \n        for (uint256 i = 0; i < requestIds.length; i++) {\n            uint256 requestId = requestIds[i];\n            \n            // Find the request in the array\n            for (uint256 j = 0; j < purchaseRequests.length; j++) {\n                if (purchaseRequests[j].requestId == requestId) {\n                    requests[i] = purchaseRequests[j];\n                    break;\n                }\n            }\n        }\n        \n        return requests;\n    }\n\n    function getPendingDeliveries() external view onlyBuyer returns (Purchase[] memory) {\n        uint256 count = 0;\n        Purchase[] storage userPurchases = deliveries[msg.sender];\n\n        for (uint256 i = 0; i < userPurchases.length; i++) {\n            if (!userPurchases[i].delivered) {\n                count++;\n            }\n        }\n\n        Purchase[] memory pendingDeliveries = new Purchase[](count);\n        uint256 index = 0;\n\n        for (uint256 i = 0; i < userPurchases.length; i++) {\n            if (!userPurchases[i].delivered) {\n                pendingDeliveries[index++] = userPurchases[i];\n            }\n        }\n\n        return pendingDeliveries;\n    }\n\n    function confirmDelivery(uint256 cropID) external onlyBuyer {\n        Purchase[] storage userPurchases = deliveries[msg.sender];\n\n        for (uint256 i = 0; i < userPurchases.length; i++) {\n            if (userPurchases[i].cropID == cropID && !userPurchases[i].delivered) {\n                userPurchases[i].delivered = true;\n                address farmer = userPurchases[i].farmer;\n                uint256 amount = userPurchases[i].amountHeld;\n\n                require(amount > 0, \"No funds available for transfer.\");\n                require(escrowBalances[msg.sender] >= amount, \"Insufficient escrow balance.\");\n\n    \n                escrowBalances[msg.sender] -= amount;\n\n          \n                (bool success, ) = payable(farmer).call{value: amount, gas: 50000}(\"\");\n                require(success, \"Transaction failed, possibly due to gas limit.\");\n\n                emit DeliveryConfirmed(msg.sender, farmer, cropID, amount);\n                return;\n            }\n        }\n        revert(\"No pending delivery found.\");\n    }\n    \n}\n",
  "sourcePath": "E:\\FarmAssure\\FarmAssure\\FarmAssure\\contract\\contracts\\FarmerPortal.sol",
  "compiler": {
    "name": "solc",
    "version": "0.8.19+commit.7dd6d404.Emscripten.clang"
  },
  "schemaVersion": "3.4.16",
  "updatedAt": "2025-08-16T20:59:57.688Z",
  "networkType": "ethereum",
  "devdoc": {
    "kind": "dev",
    "methods": {},
    "version": 1
  },
  "userdoc": {
    "kind": "user",
    "methods": {},
    "version": 1
  }
}